:040000005EEF09F0B6
:10100000000001010101010B1001100100010101AB
:1010100001151001100101000101011F100B100149
:101020000101000101291015100101010100013326
:10103000101F1001010101010033102910000101EE
:1010400044103D100100014B103D100101004B10F8
:0310500044100049
:10105400096E81B658D00950D8A402D0030E04D02A
:101064000904D8A418D0050E0424F66E000E052039
:10107400F76E000E0620F86E0900F5CF07F00900A0
:10108400F5CF08F007C004F008C005F004500510BF
:10109400D8A4000E066E04C0F6FF05C0F7FF06C014
:1010A400F8FF0800F5CF07F0074680500718FD0B3E
:1010B4000718806E010E0424F66E000E0520F76EEC
:1010C400000E0620F86E0800F5CF07F0073A8050AE
:1010D4000718EF0B0718806E020E0424F66E000E3C
:1010E4000520F76E000E0620F86E0800F5CF07F015
:1010F400073A074680500718DF0B0718806E848074
:101104008482848412000950D8A402D0060E04D02C
:101114000904D8A418D0080E0124F66E000E02208B
:10112400F76E000E0320F86E0900F5CF07F00900F2
:10113400F5CF08F007C001F008C002F0015002101A
:10114400D8A4000E036E01C0F6FF02C0F7FF03C06F
:10115400F8FF0800F5CF07F0074680500718FD0B8D
:101164000718806E010E0124F66E000E0220F76E41
:10117400000E0320F86E0800F5CF07F0073A805000
:101184000718EF0B0718806E020E0124F66E000E8E
:101194000220F76E000E0320F86E0800F5CF07F06A
:1011A400073A074680500718DF0B0718806E030EB6
:1011B4000124F66E000E0220F76E000E0320F86E76
:1011C4000800F5CF07F084500718FE0B0718846E4B
:1011D400040E0124F66E000E0220F76E000E0320AA
:1011E400F86E0800F5CF07F0074684500718FD0B8A
:1011F4000718846E050E0124F66E000E0220F76EA9
:10120400000E0320F86E0800F5CF07F007460746E6
:1012140084500718FB0B0718846E1200000E82BE60
:10122400010E0A6E000E82BC010E0B6E37EC09F043
:1012340082BE08D00A04D8A405D0000E2AEC08F017
:10124400000E03D082AE02D0010E0A6E82BC08D01A
:101254000B04D8A405D0010E2AEC08F0000E03D02C
:1012640082ACE6D7010E0B6EE3D7948E948C9386F2
:101274000F0EC112C00E9216B59C92929298929A39
:1012840096909692969480928088808A84808482B4
:1012940084843D0E046E100E056E04500510D8A40F
:1012A400000E066E010E016E100E026E0150021049
:0E12B400D8A4000E036E1200000110EF09F026
:020000040020DA
:08000000FFFFFFFFFFFFFFFF00
:020000040030CA
:0E000000FF02191EFF8381FF0FC00FE00F40AB
:00000001FF
